:0B016100303132333435363738390086
:10013C007F381200037F081200037F011200037F37
:09014C00061200037F0C020003FF
:08000300C287C286C2858FA0EE
:10000B00750900750AC8E50A150AAE0970021509CB
:06001B004E60030080F0BE
:02002100D28586
:10002300750901750AF4E50A150AAE097002150986
:060033004E60030080F0A6
:02003900C2857E
:10003B00750900750A64E50A150AAE0970021509FF
:06004B004E60030080F08E
:01005100228C
:08005200D287C286C2858FA08F
:10005A00750C00750DC8E50D150DAE0C7002150C6A
:06006A004E60030080F06F
:02007000D28537
:10007200750C01750DF4E50D150DAE0C7002150C25
:060082004E60030080F057
:02008800C2852F
:10008A00750C00750D64E50D150DAE0C7002150C9E
:06009A004E60030080F03F
:0100A000223D
:1000DC008B098A0A890BAB09AA0AA90B1200C36007
:1000EC0013050BE50B7002050A14F91200C3FF127D
:0500FC00005280E22229
:10010100EF75F00A1200A1FE75F00AA4FDC3EF9D80
:10011100FDEE90016193FF120052ED93FF02005238
:09016C00313630322635393500F8
:1001210075080C12013C7F311200527F011200034D
:0B0131007BFF7A01796C1200DC80FE7D
:03000000020155A5
:0C015500787FE4F6D8FD75810D020121D1
:1000A100C2D530F707B2D563F0FF05F030E70CB2E7
:1000B100D5F4048463F0FF05F080018430D502F4A7
:0200C100042217
:1000C300BB010689828A83E0225002E722BBFE023B
:0900D300E32289828A83E493226E
:00000001FF
