:06089E008B098A0A890B98
:1008A400751B00751C00751D0C8B1E8A1F8920ABDF
:1008B4001EAA1FA920120957602DB42510AB1B05D1
:1008C4001DE51DAA1C7002051C14F98006AB1EAAA6
:1008D4001FA920120957FF12084F74012520F52083
:0708E400E4351FF51F80C879
:0108EB0022EA
:10093E007F381208007F081208007F011208007F1E
:09094E00061208007F0C020800EB
:08080000C283C284C2858FA0EF
:10080800750900750A28E50A150AAE097002150966
:060818004E60030080F0B9
:02081E00D28581
:10082000750900750AA0E50A150AAE0970021509D6
:060830004E60030080F0A1
:02083600C28579
:10083800750900750A14E50A150AAE09700215094A
:060848004E60030080F089
:01084E002287
:08084F00D283C284C2858FA090
:10085700752100752228E5221522AE217002152187
:060867004E60030080F06A
:02086D00D28532
:10086F007521007522A0E5221522AE2170021521F7
:06087F004E60030080F052
:02088500C2852A
:10088700752100752214E5221522AE21700215216B
:060897004E60030080F03A
:01089D002238
:100919008B098A0A890BAB09AA0AA90B1209576024
:1009290013050BE50B7002050A14F9120957FF129A
:05093900084F80E222DE
:100970003136303226353935006125612561250053
:1008EC0075080C12093E7F3112084F7F0112080067
:1008FC007BFF7A0979701209197BFF7A097979855E
:0D090C00080C85080D85080E12089E80FE5F
:0300000002098072
:0C098000787FE4F6D8FD7581220208ECB7
:10095700BB010689828A83E0225002E722BBFE029E
:09096700E32289828A83E49322D1
:00000001FF
