:06034A008B0C8A0D890EE8
:10035000751E00751F0075200F8B218A228923AB23
:1003600021AA22A923120104602DB42510AB1E0579
:1003700020E520AA1F7002051F14F98006AB21AAF0
:1003800022A923120104FF12028674012523F523FA
:07039000E43522F52280C8CC
:010397002243
:1003BD007F3812021D7F0812021D7F0112021D7F60
:0903CD000612021D7F0C02021D44
:10021D00C283C284C285C2827E08C280EE14FDEF05
:10022D00A805088002C313D8FC139281D280DEEAA0
:02023D00D2826B
:10023F00752600752728E5271527AE267002152687
:06024F004E60030080F088
:02025500D28550
:100257007526007527A0E5271527AE2670021526F7
:060267004E60030080F070
:02026D00C28548
:10026F00752600752714E5271527AE26700215266B
:06027F004E60030080F058
:010285002256
:10028600D283C284C285C2827E08C280EE14FDEF8C
:10029600A805088002C313D8FC139281D280DEEA37
:0202A600D28202
:1002A800752400752528E5251525AE24700215242A
:0602B8004E60030080F01F
:0202BE00D285E7
:1002C0007524007525A0E5251525AE24700215249A
:0602D0004E60030080F007
:0202D600C285DF
:1002D800752400752514E5251525AE24700215240E
:0602E8004E60030080F0EF
:0102EE0022ED
:100398008B288A29892AAB28AA29A92A120104604C
:1003A80013052AE52A7002052914F9120104FF121F
:0503B800028680E22234
:1003D60054696D653A20003A00303132333435368F
:0803E600373839000000000067
:0903FE00012B00012C00012D006F
:1003EE00758901758C4CE4F58AD2AFD2A9D28C22D4
:1001A90078087C007D007BFF7A0379EA7E007F0472
:1001B9001200DE7F0112021DE52C75F00A8485F01C
:1001C90008E52C75F00A84F509E52D75F00A848592
:1001D900F00AE52D75F00A84F50B7BFF7A0379D6D1
:1001E90012034AE50B9003DF93FF120286E50A909A
:1001F90003DF93FF1202867BFF7A0379DD12034A3C
:10020900E5099003DF93FF120286E5089003DF9367
:04021900FF02028658
:060003001203EE0203BD32
:03000B000202EFFF
:1002EF00C0E0C0F0C083C082C0D075D000C000C0D5
:1002FF0001C002C003C004C005C006C007052B75AE
:10030F008C4C758A00E52BC394144014752B000593
:10031F002C1201A9E52CC3943C4005752C00052D2A
:10032F00D007D006D005D004D003D002D001D00022
:0B033F00D0D0D082D083D0F0D0E032CC
:0300000002011DDD
:0C011D00787FE4F6D8FD75812D020164A6
:10000E00E709F608DFFA8046E709F208DFFA803ED4
:10001E0088828C83E709F0A3DFFA8032E309F608C1
:10002E00DFFA8078E309F208DFFA807088828C8329
:10003E00E309F0A3DFFA806489828A83E0A3F608DD
:10004E00DFFA805889828A83E0A3F208DFFA804CB7
:10005E0080D280FA80C680D4806980F2803380108E
:10006E0080A680EA809A80A880DA80E280CA8033F7
:10007E0089828A83ECFAE493A3C8C582C8CCC5836F
:10008E00CCF0A3C8C582C8CCC583CCDFE9DEE7803F
:10009E000D89828A83E493A3F608DFF9ECFAA9F0BE
:1000AE00EDFB2289828A83ECFAE0A3C8C582C8CC14
:1000BE00C583CCF0A3C8C582C8CCC583CCDFEADE2D
:1000CE00E880DB89828A83E493A3F208DFF980CC8F
:1000DE0088F0EF60010E4E60C388F0ED2402B40488
:1000EE000050B9F582EB2402B4040050AF2323452F
:0600FE00822390005E73F6
:10010400BB010689828A83E0225002E722BBFE02F9
:09011400E32289828A83E493222C
:10012900020003E493A3F8E493A34003F68001F2E9
:1001390008DFF48029E493A3F85407240CC8C333D7
:10014900C4540F4420C8834004F456800146F6DFA6
:10015900E4800B01020408102040809003FEE47E35
:10016900019360BCA3FF543F30E509541FFEE4939B
:10017900A360010ECF54C025E060A840B8E493A362
:10018900FAE493A3F8E493A3C8C582C8CAC583CA8D
:10019900F0A3C8C582C8CAC583CADFE9DEE780BE45
:0104070000F4
:00000001FF
