:0902A90054696D653A20003A0029
:0D028500010F00011000011100C100C101B6
:10027500758901758C4CE4F58AD2AFD2A9C28C225E
:0B029300BF0102D28CEF7002C28C226F
:1001DA007F011201017F311201507F011201017B5F
:1001EA00FF7A0279A9120205AF1112022A7BFF7A5D
:0B01FA000279B0120205AF1002022AC9
:1002630012024A1202757FAA1201507F01120293F1
:0202730080FE0B
:03000B0002009A56
:10009A00C0E0C0F0C083C082C0D075D000C000C02C
:1000AA0001C002C003C004C005C006C007050F7521
:1000BA008C4C758A00E50FC394144020750F000517
:1000CA00101201DAE510B41E07200104D201D20091
:1000DA00E510C3943C40057510000511D007D00601
:1000EA00D005D004D003D002D001D000D0D0D08225
:0700FA00D083D0F0D0E0320A
:0B029E00303132333435363738390048
:10024A007F381201017F081201017F011201017F2B
:09025A00061201017F0C020101F2
:08010100C287C286C2858FA0EF
:10010900750D00750EC8E50E150EAE0D7002150DB4
:060119004E60030080F0BF
:02011F00D28587
:10012100750D03750E20E50E150EAE0D7002150D41
:060131004E60030080F0A7
:02013700C2857F
:10013900750D00750E64E50E150EAE0D7002150DE8
:060149004E60030080F08F
:01014F00228D
:08015000D287C286C2858FA090
:10015800750D00750EC8E50E150EAE0D7002150D65
:060168004E60030080F070
:02016E00D28538
:10017000750D03750E20E50E150EAE0D7002150DF2
:060180004E60030080F058
:02018600C28530
:10018800750D00750E64E50E150EAE0D7002150D99
:060198004E60030080F040
:01019E00223E
:100205008B088A09890AAB08AA09A90A1201C160E3
:1002150013050AE50A7002050914F91201C1FF1256
:05022500015080E222FF
:10022A00EF75F00A12019FFE75F00AA4FDC3EF9D57
:10023A00FDEE90029E93FF120150ED93FF020150D2
:0300000002000EED
:0C000E00787FE4F6D8FD758120020055D3
:10019F00C2D530F707B2D563F0FF05F030E70CB2E8
:1001AF00D5F4048463F0FF05F080018430D502F4A8
:0201BF00042218
:1001C100BB010689828A83E0225002E722BBFE023C
:0901D100E32289828A83E493226F
:10001A00020263E493A3F8E493A34003F68001F297
:10002A0008DFF48029E493A3F85407240CC8C333E7
:10003A00C4540F4420C8834004F456800146F6DFB6
:10004A00E4800B0102040810204080900285E47EBF
:10005A00019360BCA3FF543F30E509541FFEE493AB
:10006A00A360010ECF54C025E060A840B8E493A372
:10007A00FAE493A3F8E493A3C8C582C8CAC583CA9D
:10008A00F0A3C8C582C8CAC583CADFE9DEE780BE55
:01029200006B
:00000001FF
