:08054C0002180000021A000071
:0C001400E4F5D8F5F9F5E9F5D9D2DE22C3
:1004E400EFFDC374649DFDE49400FCED6519700395
:1004F400EC6518601E8C188D19AE18AF197C007D40
:100504001912023C7D0A12024E8FEA8FFA75DA4202
:03051400E4F5F219
:0105170022C1
:10051800EFFDC374649DFDE49400FCED651B70035E
:10052800EC651A601E8C1A8D1BAE1AAF1B7C007D01
:100538001912023C7D0A12024E8FEB8FFB75DB42CB
:03054800E4F5F3E4
:01054B00228D
:1003C800AB05EF14601714602014602914603724FB
:1003D800047045D290C291D292C2958008C290D240
:1003E80091C292D295AF038016D290C291D292D286
:1003F80095AF03801BD290D291D292C295E4FF129E
:1004080004E4AF03800FD290D291D292D295E4FF48
:090418001204E4E4FF12051822AD
:100026008F2AE52A60030200DA20A00330A1197D99
:10003600507F021203C830A00320A10630A4EA3084
:10004600A5E730A2E430A3E120A40330A5197D5032
:100056007F031203C830A00320A10630A4EA30A50E
:10006600E730A2E430A3E120A02220A11F20A41C97
:1000760020A5197D50E4FF1203C830A00320A10675
:0C00860030A4E430A5E130A2DE30A3DBA2
:10009200752B03752CE8E52C152CAE2B7002152B55
:0300A2004E601697
:1000A500752D00752E14E52E152EAE2D7002152D0D
:0600B5004E60E00080F047
:1000BB0030A00320A10C20A40302002F20A50302D3
:1000CB00002F20A20302002F20A30302002F22E502
:1000DB002A6401600302019320A00330A1197D5013
:1000EB007F021203C820A0F020A1ED20A2EA20A3DA
:1000FB00E720A4E420A5E120A40330A5197D507FBF
:10010B00031203C820A0F020A1ED20A2EA20A3E750
:10011B0020A4E420A5E120A02220A11F20A41C20C4
:10012B00A5197D50E4FF1203C820A0EA20A1E72007
:0B013B00A2E420A3E120A4DE20A5DB4D
:10014600752B03752CE8E52C152CAE2B7002152BA0
:030156004E6016E2
:10015900752D00752E14E52E152EAE2D7002152D58
:060169004E60E00080F092
:10016F0030A0030200E330A1030200E330A2030238
:10017F0000E330A3030200E330A4030200E330A541
:05018F00030200E32261
:10019400E4FF12002620A02120A11E20A21B20A3E0
:1001A4001820A41520A5127D507F031203C820A295
:1001B4000302023530A37A80F530A03430A1312017
:1001C400A40330A50F7D507F031203C820A4FD3083
:1001D400A50F80F820A30A7D507F021203C830A324
:1001E400FD7D50E4FF1203C820A0D420A1D18035A6
:1001F40030A43230A52F20A00330A10F7D507F0200
:100204001203C820A0FD30A10F80F820A20A7D505F
:100214007F031203C830A2FD7D50E4FF1203C820FF
:10022400A4D420A5D120A09120A18E20A48B20A508
:08023400887D507F040203C81D
:0204AD008F2599
:1004AF00E5256017E4F526E526C3952550261201AC
:1004BF0094052685260C85268080EC7D50E4FF125E
:1004CF0003C820A0FD20A1FA20A2F720A3F420A4A6
:0404DF00F120A5EE75
:0104E30022F6
:090421008D25EF24FE60028042EB
:0A042A007D507F031203C830A5FDCA
:100434007526037527E8E5271527AE2670021526CD
:030444004E6016F1
:1004470075280075291EE5291529AE28700215287B
:060457004E60E00080F0A1
:10045D0030A5D1E5257003FF80027F011200267DB6
:06046D00507F040203C8E9
:0A0473001204AD7D017F0212042186
:10047D007521037522E8E5221522AE2170021521A2
:03048D004E6016A8
:1004900075230075240AE5241524AE237002152364
:0604A0004E60E00080F058
:0704A600E4FD7F03020421C5
:03002000020014C7
:100003001200207F021204737D507F041203C88004
:01001300FEEE
:10055400C1000108000409010000000513FFFF00A9
:090564000000050EFF010000007B
:0300230002036570
:10036500C0E0C0D085990D309854E508C39403507A
:100375002EE508B40209E50DB509040508803DE53B
:1003850008B40109E50DB4FF040508802FE50870E0
:1003950009E50DB4FF0405088022750800801DE5F8
:1003A50008B40413850D0B750800850915850A1613
:1003B500850B17D2008005850D0A0508C298D0D097
:0303C500D0E03253
:030000000202D920
:0C02D900787FE4F6D8FD75812E0203202A
:10023C00EF8DF0A4A8F0CF8CF0A428CE8DF0A42ED6
:02024C00FE2290
:10024E00C2D5EC30E709B2D5E4C39DFDE49CFCEECB
:10025E0030E715B2D5E4C39FFFE49EFE120284C3BD
:10026E00E49DFDE49CFC800312028430D507C3E4B8
:06027E009FFFE49EFE223A
:1002E500020003E493A3F8E493A34003F68001F22C
:1002F50008DFF48029E493A3F85407240CC8C3331A
:10030500C4540F4420C8834004F456800146F6DFE8
:10031500E4800B010204081020408090054CE47E27
:10032500019360BCA3FF543F30E509541FFEE493DD
:10033500A360010ECF54C025E060A840B8E493A3A4
:10034500FAE493A3F8E493A3C8C582C8CAC583CACF
:10035500F0A3C8C582C8CAC583CADFE9DEE780BE87
:01056D00008D
:10028400BC000BBE0029EF8DF084FFADF022E4CC5E
:10029400F875F008EF2FFFEE33FEEC33FCEE9DEC27
:1002A400984005FCEE9DFE0FD5F0E9E4CEFD22ED6D
:1002B400F8F5F0EE8420D21CFEADF075F008EF2FB7
:1002C400FFED33FD4007985006D5F0F222C398FDA8
:0502D4000FD5F0EA2245
:00000001FF
