:1003B600C10001080003090100000512FFFF00004B
:0803C60000050DFF010000001D
:030023000202676F
:10026700C0E0C0D085990C309854E508C39403507A
:100277002EE508B40209E50CB509040508803DE53B
:1002870008B40109E50CB4FF040508802FE50870E0
:1002970009E50CB4FF0405088022750800801DE5F8
:1002A70008B40413850C0B750800850914850A1515
:1002B700850B16D2008005850C0A0508C298D0D098
:0302C700D0E03252
:0803CE000217000002190000F3
:0C001400E4F5D8F5F9F5E9F5D9D2DE22C3
:10031D00EFFDC374649DFDE49400FCED651870035E
:10032D00EC6517601E8C178D18AE17AF187C007D0D
:10033D001912013E7D0A1201508FEA8FFA75DA42C9
:03034D00E4F5F2E2
:01035000228A
:10035100EFFDC374649DFDE49400FCED651A700328
:10036100EC6519601E8C198D1AAE19AF1A7C007DCF
:100371001912013E7D0A1201508FEB8FFB75DB4292
:03038100E4F5F3AD
:010384002256
:1002CA00AB05EF14601114601A1460231460312412
:1002DA0004703FD2908002C290C291D292C295AF6E
:1002EA00038016D290C291D292D295AF03801BD2CC
:1002FA0090D291D292C295E4FF12031DAF03800FF0
:10030A00D290D291D292D295E4FF12031DE4FF1249
:03031A000351226A
:1000260030A00320A10630A40930A50630A2032083
:10003600A37520A00330A1197D467F021202CA30A3
:10004600A00320A10630A4EA30A5E730A2E430A33D
:10005600E120A40330A5197D467F031202CA30A011
:100066000320A10630A4EA30A5E730A2E430A3E1DC
:1000760020A02220A11F20A41C20A5197D46E4FF54
:100086001202CA30A00320A10630A4E430A5E13054
:10009600A2DE30A3DB30A00320A10630A49430A555
:1000A6009130A28E30A38B20A00920A10620A403A4
:1000B60030A56E30A03430A13120A40330A50F7DC9
:1000C600467F031202CA20A4FD30A50F80F820A3A4
:1000D6000A7D467F021202CA20A3FD7D46E4FF1276
:1000E60002CA20A0D420A1D180BD30A4BA30A5B7C1
:1000F60020A00330A10F7D467F021202CA20A0FD78
:1001060030A10F80F820A20A7D467F031202CA2082
:10011600A2FD7D46E4FF1202CA20A4D420A5D18008
:010126008652
:10012700751D00751EC8E51E151EAE1D7002151D36
:060137004E60030080F0A1
:01013D00229F
:020385008F1BCC
:10038700E51B6011E4F51CE51CC3951B502012000A
:1003970026051C80F27D46E4FF1202CA20A0FD203C
:0E03A700A1FA20A2F720A3F420A4F120A5EED5
:0103B5002225
:03002000020014C7
:100003001200207F021203857D467F041202CA80FC
:01001300FEEE
:030000000201DB1F
:0C01DB00787FE4F6D8FD75812002022236
:10013E00EF8DF0A4A8F0CF8CF0A428CE8DF0A42ED5
:02014E00FE228F
:10015000C2D5EC30E709B2D5E4C39DFDE49CFCEECA
:1001600030E715B2D5E4C39FFFE49EFE120186C3BB
:10017000E49DFDE49CFC800312018630D507C3E4B6
:060180009FFFE49EFE2239
:1001E700020003E493A3F8E493A34003F68001F22B
:1001F70008DFF48029E493A3F85407240CC8C33319
:10020700C4540F4420C8834004F456800146F6DFE7
:10021700E4800B01020408102040809003B6E47EBE
:10022700019360BCA3FF543F30E509541FFEE493DC
:10023700A360010ECF54C025E060A840B8E493A3A3
:10024700FAE493A3F8E493A3C8C582C8CAC583CACE
:10025700F0A3C8C582C8CAC583CADFE9DEE780BE86
:0103D6000026
:10018600BC000BBE0029EF8DF084FFADF022E4CC5D
:10019600F875F008EF2FFFEE33FEEC33FCEE9DEC26
:1001A600984005FCEE9DFE0FD5F0E9E4CEFD22ED6C
:1001B600F8F5F0EE8420D21CFEADF075F008EF2FB6
:1001C600FFED33FD4007985006D5F0F222C398FDA7
:0501D6000FD5F0EA2244
:00000001FF
