:1000DF00EF700EE5A0B4C0097D63E4FF120000804D
:0200EF00F222FB
:1000030030A20C30A3097D63E4FF120000803F306F
:10001300A22130A31E20A00920A10620A40330A5FD
:10002300067E007F0180047E007F00EFF4FFEEF484
:100033004F701B20A00330A1067D637F03800A203D
:10004300A40330A5CA7D637F0212000080C17D63D3
:05005300E4FF020000C3
:020058008F080F
:10005A00E4F509E5086509603D30A23530A3323080
:10006A00A40320A50630A02930A12620A00920A19A
:07007A000620A40330A516C7
:10008100750A00750B64E50B150BAE0A7002150AB3
:060091004E60E10080F06A
:09009700050980C212000380BDBE
:0100A000223D
:1000A100EF14601724FE60222403702B7D637F030D
:1000B10012000030A2FD20A31E80F87D637F021292
:1000C100000030A2FD20A30F80F87D637F021200A3
:0E00D1000030A2FD30A3FA7D637F0402000020
:0700FD007D63E4FF02000037
:050104001200FD80FE69
:030000000200F10A
:0C00F100787FE4F6D8FD75810B02010455
:00000001FF
