:0B0CB10030313233343536373839002B
:100C10007F381209FC7F081209FC7F011209FC7F52
:090C2000061209FC7F0C0209FC1C
:0809FC00C2A7C2A6C2968F80BB
:100A04007526007527C8E5271527AE26700215261A
:060A14004E60030080F0BB
:020A1A00D29672
:100A1C00752603752720E5271527AE2670021526A7
:060A2C004E60030080F0A3
:020A3200C2966A
:100A3400752600752764E5271527AE26700215264E
:060A44004E60030080F08B
:010A4A002289
:080A4B00D2A7C2A6C2968F805B
:100A5300752900752AC8E52A152AAE2970021529B9
:060A63004E60030080F06C
:020A6900D29623
:100A6B00752903752A20E52A152AAE297002152946
:060A7B004E60030080F054
:020A8100C2961B
:100A8300752900752A64E52A152AAE2970021529ED
:060A93004E60030080F03C
:010A9900223A
:100BCB008B268A278928AB26AA27A928120384609B
:100BDB00130528E5287002052714F9120384FF1268
:050BEB000A4B80E2222C
:100BF000EF75F00A120362FE75F00AA4FDC3EF9DC3
:100C0000FDEE900CB193FF120A4BED93FF020A4BDD
:100AD800C102010800050901000000000514FFFF1C
:0A0AE800010000050FFF01000300EC
:0300230002099936
:10099900C0E0C0D085990E309854E508C39403503F
:1009A9002EE508B40209E50EB509040508803DE500
:1009B90008B40109E50EB4FF040508802FE50870A5
:1009C90009E50EB4FF0405088022750800801DE5BD
:1009D90008B40413850E0B750800850916850A17D6
:1009E900850B18D2028005850E0A0508C298D0D059
:0309F900D0E03219
:080AF20002190000021B0000C4
:0C0CA500E4F5D8F5F9F5E9F5D9D2DE2226
:100B1300EFFDC374649DFDE49400FCED651A70035E
:100B2300EC6519601E8C198D1AAE19AF1A7C007D05
:100B33001912039D7D0A1203AF8FEA8FFA75DA4209
:030B4300E4F5F2E4
:010B4600228C
:100B4700EFFDC374649DFDE49400FCED651C700328
:100B5700EC651B601E8C1B8D1CAE1BAF1C7C007DC7
:100B67001912039D7D0A1203AF8FEB8FFB75DB42D2
:030B7700E4F5F3AF
:010B7A002258
:1007B000AB05EFB40700507C9007BFF82828730200
:1007C00007D40207DE0207E80207F4020800020865
:1007D00011020822D290C291D292C295803BC2905F
:1007E000D291C292D2958031D290C291D292D295BA
:1007F000AF038016D290D291D292C295E4FF801BB3
:10080000D290D291D292D295E4FF120B13E4FF80E2
:1008100020C290D291D292D295AF03120B13AF03A4
:10082000800FD290D291C292D295AF03120B13AF28
:0508300003120B47223A
:100C5A0054696D653A20003A00666F756E64206CBF
:060C6A00696E65733A009B
:0D0AFA00011D00011E00011F00C101C1000F
:100C9500758901758C4CE4F58AD2AFD2A9C28C2234
:100C8300BF0102D28CEF7002C28CBF0204C201C248
:020C930000223D
:100A9A007F011209FC7F31120A4B7F011209FC7B8C
:100AAA00FF7A0C795A120BCBAF1F120BF07BFF7A2D
:100ABA000C7961120BCBAF1E120BF07FC01209FC2E
:0E0ACA007BFF7A0C7963120BCBAF0C020BF0A2
:03000B00020932B5
:10093200C0E0C0F0C083C082C0D075D000C000C08B
:1009420001C002C003C004C005C006C007051D7572
:100952008C4C758A00E51DC394144020751D00055A
:100962001E120A9AE51EB41E07200004D200D2010C
:10097200E51EC3943C4005751E00051FD007D00636
:10098200D005D004D003D002D001D000D0D0D08284
:07099200D083D0F0D0E03269
:100026008F28E528600302013820A00330A1197D3E
:10003600507F021207B030A00320A10630A4EA3098
:10004600A5E730A2E430A3E120A40330A5197D5032
:100056007F031207B030A00320A10630A4EA30A522
:10006600E730A2E430A3E120A02820A12520A42285
:1000760020A51F30A21C30A3197D50E4FF1207B043
:1000860030A00320A10630A4DE30A5DB30A2D83094
:10009600A3D520A02820A12520A32220A41F20A587
:1000A6001C30A2197D507F021207B030A00320A198
:1000B6000630A4DE30A5DB30A2D830A3D520A02898
:1000C60020A12520A22220A41F20A51C30A3197D33
:1000D600507F031207B030A00320A10630A4DE3003
:0800E600A5DB30A2D830A3D540
:1000EE00752903752AE8E52A152AAE297002152905
:0300FE004E60163B
:10010100752B00752C01E52C152CAE2B7002152BCF
:060111004E60E00080F0EA
:1001170030A00320A10C20A40302002F20A5030276
:10012700002F20A20302002F20A30302002F0202A8
:100137004DE5286401600302024D20A00330A11998
:100147007D507F021207B020A0F020A1ED20A2EA87
:1001570020A3E720A4E420A5E120A40330A5197D6E
:10016700507F031207B020A0F020A1ED20A2EA20C3
:10017700A3E720A4E420A5E120A02820A12520A40E
:100187002220A51F30A21C30A3197D50E4FF1207BF
:10019700B020A0E420A1E120A2DE20A3DB20A4D888
:1001A70020A5D520A02820A12520A32220A41F20F8
:1001B700A51C30A2197D507F021207B030A0032082
:1001C700A10630A4DE30A5DB30A2D830A3D520A00D
:1001D7002820A12520A22220A41F20A51C30A31976
:1001E7007D507F031207B030A00320A10630A4DEA4
:0901F70030A5DB30A2D830A3D5FD
:10020000752903752AE8E52A152AAE2970021529F1
:030210004E601627
:10021300752B00752C01E52C152CAE2B7002152BBC
:060223004E60E00080F0D7
:1002290030A00302014130A10302014130A20302BF
:10023900014130A30302014130A40302014130A569
:0B024900030201417D507F040207B05A
:08000300E4FF1200260208359B
:1008350030A03430A13120A40330A50F7D507F03B3
:100845001207B020A4FD30A50F80F820A30A7D5023
:100855007F021207B030A3FD7D50E4FF1207B020E0
:10086500A0D420A1D1803530A43230A52F20A003FB
:1008750030A10F7D507F021207B020A0FD30A10FDF
:1008850080F820A20A7D507F031207B030A2FD7DBB
:1008950050E4FF1207B020A4D420A5D120A09120B8
:0F08A500A18E20A48B20A5887D507F040207B070
:10067D00EF14605314602F24FD606114607924031E
:10068D00600302071D7D507F031207B020A50330C4
:10069D00A0FA20A0FD20A1FA20A4F720A5F430A2F5
:1006AD00F120A36C80EC7D507F021207B020A503D2
:1006BD0030A0FA20A0FD20A1FA20A4F720A5F43047
:1006CD00A2F120A34B80EC7D507F011207B030A02A
:1006DD000320A13C30A4F720A53680F27D507F0584
:1006ED001207B020A0FD20A1FA20A4F720A5F43018
:1006FD00A2F120A31B80EC7D507F061207B020A035
:10070D00FD20A1FA20A4F720A5F430A2F130A3EE2C
:07071D007D507F040207B0CC
:1005C8007F0112067DE50C24FC601F14602B14606B
:1005D8003714604314604F240570557F0312067D5D
:1005E8007F0312067D120003800A7F0212067D7FB8
:1005F8000212067D120003800A7F0312067D7F0324
:1006080012067D120003800A7F0212067D7F021205
:10061800067D120003800A7F0312067D7F031206FF
:100628007D120003800A7F0212067D7F0212067D7A
:10063800E4FF1200267F0212067DE4FF1200267DE9
:10064800507F021207B020A0FD20A1FA1208357DC4
:10065800507F031207B020A0FD20A1FA20A2F720A6
:10066800A3F420A4F120A5EE750C01750D017D50B1
:050678007F040207B041
:10050E007F0112067DE50C24FC601F14602B146025
:10051E003714604314604F2405705A7F0312067D12
:10052E007F0312067D120003800A7F0212067D7F72
:10053E000212067D120003800A7F0312067D7F03DE
:10054E0012067D120003800A7F0212067D7F0212C0
:10055E00067D120003800A7F0312067D7F031206BA
:10056E007D120003800F7F0112067D7F0212067D31
:10057E007F0212067DE4FF1200267F0212067D1214
:10058E000003E4FF1200267F0212067DE4FF120034
:10059E00267D507F021207B030A00320A10630A4A2
:1005AE000930A50630A20320A3EE120835750C0201
:0A05BE00750D017D507F040207B0A7
:1008B400E50C6403600BE50C64056005E50CB40706
:1008C400047F058013E50C6404600BE50C6406608A
:1008D40005E50CB408057F0612067DE50C24FC60D2
:1008E4001214601414601614601824047017120093
:1008F4000380001200038000120003800012000332
:100904008000120003E4FF1200267F0212067DE439
:10091400FF120026120835E4FF1200267F02120699
:0E0924007DE4FF1200261208357F0102002636
:10025400EFB409004003020361900264F828287394
:1002640002035E02035802035B02027F02029A0247
:1002740002BA0202DD02030302032CE4FF12002689
:100284007F0212067D1200037F0212067D7F011297
:100294000026750C0322E4FF1200267F0212067D5D
:1002A400120003E4FF1200267F0312067D7F011271
:1002B4000026750C0422E4FF1200267F0212067D3C
:1002C400120003120003E4FF1200267F0212067DCF
:1002D4007F01120026750C0522E4FF1200267F021E
:1002E40012067D120003120003120003E4FF120041
:1002F400267F0312067D7F01120026750C0622E478
:10030400FF1200267F0212067D1200031200031260
:100314000003120003E4FF1200267F0212067D7F11
:1003240001120026750C0722E4FF1200267F021238
:10033400067D1200031200031200031200031200D0
:1003440003E4FF1200267F0312067D7F01120026BC
:0E035400750C08220205C802050E1208B4221C
:10043A008F277F0112067D7F0612067DE4FF1200D8
:10044A00267F0312067D7D50E4FF1207B030A0FD1F
:10045A0030A1FAE50CB408047F0280027F03120679
:10046A007DE52724FC603414604C146061146073C9
:10047A001470030204FF2405600302050712000337
:10048A001200031200031200031200037F03120674
:10049A007D7F01120026750C038062120003120090
:1004AA00031200031200037F0212067D7F0112006D
:1004BA0026750C0480471200031200031200037F02
:1004CA000312067D7F01120026750C05802F12008B
:1004DA00031200037F0212067D7F01120026750CAB
:1004EA0006801A1200037F0312067D7F011200267E
:1004FA00750C0780087F01120026750C087D507F55
:04050A00040207B030
:100C42008F26E50C64016005E50CB40205AF2602AF
:080C5200043AAF2612025422FD
:030CC400020C42DD
:10000E00759850758920758DFD758BFDD28ED2AC8D
:03001E00D2AF223C
:080CBC008F993099FDC29922C5
:060BA5008B368A37893807
:100BAB00E4FEEEC39D5018AB360538E538AA377016
:0F0BBB0002053714F9120384FF120CBC0E80E3FD
:010BCA002208
:0B0B0700092D00010203040506070889
:020B7B008F39B0
:100B7D00E4F53A742D253AF8E6B50C04853A1222BF
:100B8D008539137B007A00790F7D05120BA5053A87
:070B9D00E53AC3940940DCB6
:010BA400222E
:100C7000120CA5120C10120C9512000E120A9AE416
:030C8000F50C224E
:100C2900120C707F04120CC47F01120CC47F0412D1
:090C39000CC4E4FF120CC480FE9F
:03000000020724D0
:0C072400787FE4F6D8FD75813A02076B7F
:10036200C2D530F707B2D563F0FF05F030E70CB223
:10037200D5F4048463F0FF05F080018430D502F4E3
:02038200042253
:10038400BB010689828A83E0225002E722BBFE0277
:09039400E32289828A83E49322AA
:10039D00EF8DF0A4A8F0CF8CF0A428CE8DF0A42E74
:0203AD00FE222E
:1003AF00C2D5EC30E709B2D5E4C39DFDE49CFCEE69
:1003BF0030E715B2D5E4C39FFFE49EFE1203E5C3F9
:1003CF00E49DFDE49CFC80031203E530D507C3E4F4
:0603DF009FFFE49EFE22D8
:10073000020C29E493A3F8E493A34003F68001F2AA
:1007400008DFF48029E493A3F85407240CC8C333CA
:10075000C4540F4420C8834004F456800146F6DF99
:10076000E4800B0102040810204080900AD8E47E47
:10077000019360BCA3FF543F30E509541FFEE4938E
:10078000A360010ECF54C025E060A840B8E493A355
:10079000FAE493A3F8E493A3C8C582C8CAC583CA80
:1007A000F0A3C8C582C8CAC583CADFE9DEE780BE38
:010B120000E2
:1003E500BC000BBE0029EF8DF084FFADF022E4CCFC
:1003F500F875F008EF2FFFEE33FEEC33FCEE9DECC5
:10040500984005FCEE9DFE0FD5F0E9E4CEFD22ED0A
:10041500F8F5F0EE8420D21CFEADF075F008EF2F54
:10042500FFED33FD4007985006D5F0F222C398FD45
:050435000FD5F0EA22E2
:00000001FF
