:0B0D5500303132333435363738390086
:100CCD007F38120A9B7F08120A9B7F01120A9B7FB5
:090CDD0006120A9B7F0C020A9B1F
:080A9B00C2A7C2A6C2968F801B
:100AA3007526007527C8E5271527AE26700215267B
:060AB3004E60030080F01C
:020AB900D296D3
:100ABB00752603752720E5271527AE267002152608
:060ACB004E60030080F004
:020AD100C296CB
:100AD300752600752764E5271527AE2670021526AF
:060AE3004E60030080F0EC
:010AE90022EA
:080AEA00D2A7C2A6C2968F80BC
:100AF200752900752AC8E52A152AAE29700215291A
:060B02004E60030080F0CC
:020B0800D29683
:100B0A00752903752A20E52A152AAE2970021529A6
:060B1A004E60030080F0B4
:020B2000C2967B
:100B2200752900752A64E52A152AAE29700215294D
:060B32004E60030080F09C
:010B3800229A
:100C6A008B268A278928AB26AA27A92812038460FB
:100C7A00130528E5287002052714F9120384FF12C8
:050C8A000AEA80E222ED
:100C8F00EF75F00A120362FE75F00AA4FDC3EF9D23
:100C9F00FDEE900D5593FF120AEAED93FF020AEA5B
:100B7700C102010800050901000000000514FFFF7C
:0A0B8700010000050FFF010003004C
:03002300020A3896
:100A3800C0E0C0D085990E309854E508C39403509F
:100A48002EE508B40209E50EB509040508803DE560
:100A580008B40109E50EB4FF040508802FE5087005
:100A680009E50EB4FF0405088022750800801DE51D
:100A780008B40413850E0B750800850916850A1736
:100A8800850B18D2028005850E0A0508C298D0D0B9
:030A9800D0E03279
:080B910002190000021B000024
:0C0D4900E4F5D8F5F9F5E9F5D9D2DE2281
:100BB200EFFDC374649DFDE49400FCED651A7003BF
:100BC200EC6519601E8C198D1AAE19AF1A7C007D66
:100BD2001912039D7D0A1203AF8FEA8FFA75DA426A
:030BE200E4F5F245
:010BE50022ED
:100BE600EFFDC374649DFDE49400FCED651C700389
:100BF600EC651B601E8C1B8D1CAE1BAF1C7C007D28
:100C06001912039D7D0A1203AF8FEB8FFB75DB4232
:030C1600E4F5F30F
:010C190022B8
:10084F00AB05EFB40700507C90085EF828287302C0
:10085F00087302087D02088702089302089F0208A6
:10086F00B00208C1D290C291D292C295803BC29081
:10087F00D291C292D2958031D290C291D292D2951A
:10088F00AF038016D290D291D292C295E4FF801B13
:10089F00D290D291D292D295E4FF120BB2E4FF80A4
:1008AF0020C290D291D292D295AF03120BB2AF0366
:1008BF00800FD290D291C292D295AF03120BB2AFEA
:0508CF0003120BE622FC
:100CFE0054696D653A20003A00666F756E64206C1B
:060D0E00696E65733A00F6
:0D0B9900011D00011E00011F00C101C1006F
:100D3900758901758C4CE4F58AD2AFD2A9C28C228F
:100D2700BF0102D28CEF7002C28CBF0204C201C2A3
:020D3700002298
:100B39007F01120A9B7F31120AEA7F01120A9B7B0D
:100B4900FF7A0C79FE120C6AAF1F120C8F7BFF7AA9
:100B59000D7905120C6AAF1E120C8F7FC0120A9B09
:0E0B69007BFF7A0D7907120C6AAF0C020C8F1D
:03000B000209D116
:1009D100C0E0C0F0C083C082C0D075D000C000C0EC
:1009E10001C002C003C004C005C006C007051D75D3
:1009F1008C4C758A00E51DC394144020751D0005BB
:100A01001E120B39E51EB41E07200004D200D201CC
:100A1100E51EC3943C4005751E00051FD007D00696
:100A2100D005D004D003D002D001D000D0D0D082E4
:070A3100D083D0F0D0E032C9
:100026008F29E529600302013820A00330A1197D3C
:10003600507F0212084F30A00320A10630A4EA30F8
:10004600A5E730A2E430A3E120A40330A5197D5032
:100056007F0312084F30A00320A10630A4EA30A582
:10006600E730A2E430A3E120A02820A12520A42285
:1000760020A51F30A21C30A3197D50E4FF12084FA3
:1000860030A00320A10630A4DE30A5DB30A2D83094
:10009600A3D520A02820A12520A32220A41F20A587
:1000A6001C30A2197D507F0212084F30A00320A1F8
:1000B6000630A4DE30A5DB30A2D830A3D520A02898
:1000C60020A12520A22220A41F20A51C30A3197D33
:1000D600507F0312084F30A00320A10630A4DE3063
:0800E600A5DB30A2D830A3D540
:1000EE00752A03752BE8E52B152BAE2A7002152AFF
:0300FE004E60163B
:10010100752C00752D01E52D152DAE2C7002152CC9
:060111004E60E00080F0EA
:1001170030A00320A10C20A40302002F20A5030276
:10012700002F20A20302002F20A30302002F0202A8
:100137004DE5296401600302024D20A00330A11997
:100147007D507F0212084F20A0F020A1ED20A2EAE7
:1001570020A3E720A4E420A5E120A40330A5197D6E
:10016700507F0312084F20A0F020A1ED20A2EA2023
:10017700A3E720A4E420A5E120A02820A12520A40E
:100187002220A51F30A21C30A3197D50E4FF1208BE
:100197004F20A0E420A1E120A2DE20A3DB20A4D8E9
:1001A70020A5D520A02820A12520A32220A41F20F8
:1001B700A51C30A2197D507F0212084F30A00320E2
:1001C700A10630A4DE30A5DB30A2D830A3D520A00D
:1001D7002820A12520A22220A41F20A51C30A31976
:1001E7007D507F0312084F30A00320A10630A4DE04
:0901F70030A5DB30A2D830A3D5FD
:10020000752A03752BE8E52B152BAE2A7002152AEB
:030210004E601627
:10021300752C00752D01E52D152DAE2C7002152CB6
:060223004E60E00080F0D7
:1002290030A00302014130A10302014130A20302BF
:10023900014130A30302014130A40302014130A569
:0B024900030201417D507F0402084FBA
:08000300E4FF1200260208D4FC
:1008D40030A03430A13120A40330A50F7D507F0314
:1008E40012084F20A4FD30A50F80F820A30A7D50E4
:1008F4007F0212084F30A3FD7D50E4FF12084F2001
:10090400A0D420A1D1803530A43230A52F20A0035B
:1009140030A10F7D507F0212084F20A0FD30A10F9F
:1009240080F820A20A7D507F0312084F30A2FD7D7B
:1009340050E4FF12084F20A4D420A5D120A0912078
:0F094400A18E20A48B20A5887D507F0402084F30
:10067D00EF14605314602F24FD606114607924031E
:10068D00600302071D7D507F0312084F20A5033024
:10069D00A0FA20A0FD20A1FA20A4F720A5F430A2F5
:1006AD00F120A36C80EC7D507F0212084F20A50332
:1006BD0030A0FA20A0FD20A1FA20A4F720A5F43047
:1006CD00A2F120A34B80EC7D507F0112084F30A08A
:1006DD000320A13C30A4F720A53680F27D507F0584
:1006ED0012084F20A0FD20A1FA20A4F720A5F43078
:1006FD00A2F120A31B80EC7D507F0612084F20A095
:10070D00FD20A1FA20A4F720A5F430A2F130A3EE2C
:07071D007D507F0402084F2C
:1005C8007F0112067DE50C24FC601F14602B14606B
:1005D8003714604314604F240570557F0312067D5D
:1005E8007F0312067D120003800A7F0212067D7FB8
:1005F8000212067D120003800A7F0312067D7F0324
:1006080012067D120003800A7F0212067D7F021205
:10061800067D120003800A7F0312067D7F031206FF
:100628007D120003800A7F0212067D7F0212067D7A
:10063800E4FF1200267F0212067DE4FF1200267DE9
:10064800507F0212084F20A0FD20A1FA1208D47D85
:10065800507F0312084F20A0FD20A1FA20A2F72006
:10066800A3F420A4F120A5EE750C01750D017D50B1
:050678007F0402084FA1
:10050E007F0112067DE50C24FC601F14602B146025
:10051E003714604314604F2405705A7F0312067D12
:10052E007F0312067D120003800A7F0212067D7F72
:10053E000212067D120003800A7F0312067D7F03DE
:10054E0012067D120003800A7F0212067D7F0212C0
:10055E00067D120003800A7F0312067D7F031206BA
:10056E007D120003800F7F0112067D7F0212067D31
:10057E007F0212067DE4FF1200267F0212067D1214
:10058E000003E4FF1200267F0212067DE4FF120034
:10059E00267D507F0212084F30A00320A10630A402
:1005AE000930A50630A20320A3EE1208D4750C0262
:0A05BE00750D017D507F0402084F07
:10095300E50C6403600BE50C64056005E50CB40766
:10096300047F058013E50C6404600BE50C640660EA
:1009730005E50CB408057F0612067DE50C24FC6032
:1009830012146014146016146018240470171200F3
:100993000380001200038000120003800012000392
:1009A3008000120003E4FF1200267F0212067DE49A
:1009B300FF1200261208D4E4FF1200267F0212065B
:0E09C3007DE4FF1200261208D47F01020026F8
:10025400EFB409004003020361900264F828287394
:1002640002035E02035802035B02027F02029A0247
:1002740002BA0202DD02030302032CE4FF12002689
:100284007F0212067D1200037F0212067D7F011297
:100294000026750C0322E4FF1200267F0212067D5D
:1002A400120003E4FF1200267F0312067D7F011271
:1002B4000026750C0422E4FF1200267F0212067D3C
:1002C400120003120003E4FF1200267F0212067DCF
:1002D4007F01120026750C0522E4FF1200267F021E
:1002E40012067D120003120003120003E4FF120041
:1002F400267F0312067D7F01120026750C0622E478
:10030400FF1200267F0212067D1200031200031260
:100314000003120003E4FF1200267F0212067D7F11
:1003240001120026750C0722E4FF1200267F021238
:10033400067D1200031200031200031200031200D0
:1003440003E4FF1200267F0312067D7F01120026BC
:0E035400750C08220205C802050E120953227C
:10043A008F277F0112067D7F0612067DE4FF1200D8
:10044A00267F0312067D7D50E4FF12084F30A0FD7F
:10045A0030A1FAE527B408047F0280027F0312065E
:10046A007DE52724FC603414604C146061146073C9
:10047A001470030204FF2405600302050712000337
:10048A001200031200031200031200037F03120674
:10049A007D7F01120026750C038062120003120090
:1004AA00031200031200037F0212067D7F0112006D
:1004BA0026750C0480471200031200031200037F02
:1004CA000312067D7F01120026750C05802F12008B
:1004DA00031200037F0212067D7F01120026750CAB
:1004EA0006801A1200037F0312067D7F011200267E
:1004FA00750C0780087F01120026750C087D507F55
:04050A000402084F90
:100CE6008F26E50C64016005E50CB40205AF26020B
:080CF600043AAF261202542259
:020724008F261E
:10072600E50CC395265023E50C6403600BE50C64C9
:10073600056005E50CB407047F0580027F061206F6
:100746007DC3E526950CF5288021E50C6403600B36
:10075600E50C64056005E50CB407047F0680027F9E
:100766000512067DC3E50C9526F528852827D3E5D1
:1007760027648094804007120003152780F0E50C5B
:10078600C395265015E52664036024E526640560B6
:100796001EE526B4070280178011E5266403600B68
:1007A600E52664056005E526B407047F0380027F1D
:0C07B6000212067D7F0112002685260C31
:0107C2002214
:030D6800020CE694
:10000E00759850758920758DFD758BFDD28ED2AC8D
:03001E00D2AF223C
:080D60008F993099FDC2992220
:060C44008B378A38893964
:100C4A00E4FEEEC39D5018AB370539E539AA387072
:0F0C5A0002053814F9120384FF120D600E80E3B7
:010C69002268
:0B0BA600092E000102030405060708E9
:020C1A008F3A0F
:100C1C00E4F53B742E253BF8E6B50C04853B12221B
:100C2C00853A137B007A00790F7D05120C44053B45
:070C3C00E53BC3940940DC15
:010C4300228E
:100D1400120D49120CCD120D3912000E120B39E4CA
:030D2400F50C22A9
:100CAF00120D147F08120D687F01120D687F081254
:0E0CBF000D687F03120724E4FF120D6880FE0B
:030000000207C331
:0C07C300787FE4F6D8FD75813B02080A3F
:10036200C2D530F707B2D563F0FF05F030E70CB223
:10037200D5F4048463F0FF05F080018430D502F4E3
:02038200042253
:10038400BB010689828A83E0225002E722BBFE0277
:09039400E32289828A83E49322AA
:10039D00EF8DF0A4A8F0CF8CF0A428CE8DF0A42E74
:0203AD00FE222E
:1003AF00C2D5EC30E709B2D5E4C39DFDE49CFCEE69
:1003BF0030E715B2D5E4C39FFFE49EFE1203E5C3F9
:1003CF00E49DFDE49CFC80031203E530D507C3E4F4
:0603DF009FFFE49EFE22D8
:1007CF00020CAFE493A3F8E493A34003F68001F285
:1007DF0008DFF48029E493A3F85407240CC8C3332B
:1007EF00C4540F4420C8834004F456800146F6DFFA
:1007FF00E4800B0102040810204080900B77E47E08
:10080F00019360BCA3FF543F30E509541FFEE493EE
:10081F00A360010ECF54C025E060A840B8E493A3B5
:10082F00FAE493A3F8E493A3C8C582C8CAC583CAE0
:10083F00F0A3C8C582C8CAC583CADFE9DEE780BE98
:010BB1000043
:1003E500BC000BBE0029EF8DF084FFADF022E4CCFC
:1003F500F875F008EF2FFFEE33FEEC33FCEE9DECC5
:10040500984005FCEE9DFE0FD5F0E9E4CEFD22ED0A
:10041500F8F5F0EE8420D21CFEADF075F008EF2F54
:10042500FFED33FD4007985006D5F0F222C398FD45
:050435000FD5F0EA22E2
:00000001FF
