:10061F007F381201907F081201907F011201907FA5
:09062F00061201907F0C020190FB
:10019000C283C284C285C2827E08C280EE14FDEF93
:1001A000A805088002C313D8FC139281D280DEEA2E
:0201B000D282F9
:1001B200753200753328E5331533AE3270021532CD
:0601C2004E60030080F016
:0201C800D285DE
:1001CA007532007533A0E5331533AE32700215323D
:0601DA004E60030080F0FE
:0201E000C285D6
:1001E200753200753314E5331533AE3270021532B1
:0601F2004E60030080F0E6
:0101F80022E4
:1001F900D283C284C285C2827E08C280EE14FDEF1A
:10020900A805088002C313D8FC139281D280DEEAC4
:02021900D2828F
:10021B00751E00751F28E51F151FAE1E7002151EDB
:06022B004E60030080F0AC
:02023100D28574
:10023300751E00751FA0E51F151FAE1E7002151E4B
:060243004E60030080F094
:02024900C2856C
:10024B00751E00751F14E51F151FAE1E7002151EBF
:06025B004E60030080F07C
:01026100227A
:10059F008B1B8A1C891DAB1BAA1CA91D1201226073
:1005AF0013051DE51D7002051C14F9120122FF121F
:0505BF0001F980E222B9
:10063800C100010900030A0100000512FFFF0000C4
:0806480000050DFFFF0000009A
:030023000202CB0B
:0402CB00C0E0C0D0FF
:1002CF00859908309854E509C39403502EE509B475
:1002DF000209E508B50A040509803DE509B40109DD
:1002EF00E508B4FF040509802FE5097009E508B496
:1002FF00FF0405098022750900801DE509B4041368
:10030F0085080C750900850A14850B15850C16D206
:0A031F0000800585080B0509C2984F
:05032900D0D0D0E0324D
:0C068700E4F5D8F5F9F5E9F5D9D2DE224A
:1005E500C374649F75F019A4FFAEF07C007D0A12F8
:0C05F500013B8FEA8FFA75DA42E4F5F260
:0106010022D6
:10060200C374649F75F019A4FFAEF07C007D0A12DA
:0C061200013B8FEB8FFB75DB42E4F5F33E
:01061E0022B9
:10038300AB05EF14601114601A1460231460312458
:1003930004703FD2908002C290C291D292C295AFB4
:1003A300038016D290C291D292D295AF03801BD212
:1003B30090D291D292C295E4FF1205E5AF03800F6C
:1003C300D290D291D292D295E4FF1205E5E4FF12C6
:0303D300060222FD
:02051D00D2A169
:10051F00752400752501E5251525AE2470021524D7
:06052F004E60030080F0A5
:02053500D2A052
:10053700752400752505E5251525AE2470021524BB
:060547004E60030080F08D
:01054D00228B
:0500030012051DC2A062
:10000800752600752705E5271527AE2670021526E3
:060018004E60030080F0C1
:03001E00C2A1225A
:02042100C2A077
:10042300752800752901E5291529AE2870021528BC
:060433004E60030080F0A2
:02043900D2A14E
:10043B00752800752905E5291529AE2870021528A0
:06044B004E60030080F08A
:02045100D2A037
:10045300752800752905E5291529AE287002152888
:060463004E60030080F072
:010469002270
:0200B2008F17A6
:1000B400E4F518E4F518C374079518FFE517A807C5
:0A00C400088002C313D8FC1392A0B9
:1000CE00751900751A01E51A151AAE19700215196F
:0600DE004E60030080F0FB
:0200E400D2A1A7
:1000E600751900751A05E51A151AAE197002151953
:0600F6004E60030080F0E3
:0200FC00C2A19F
:1000FE00751900751A01E51A151AAE19700215193F
:06010E004E60030080F0CA
:0D0114000518E518B4089F120262EF7096FE
:0101210022BB
:06046A00E4FF7E08D2A1B0
:10047000752A00752B05E52B152BAC2A7002152A61
:060480004C60030080F057
:0A04860030A0010FEF25E0FFC2A136
:10049000752A00752B05E52B152BAC2A7002152A41
:0604A0004C60030080F037
:0204A600DEC6B0
:0104A8002231
:02026200D2A028
:10026400752C00752D01E52D152DAE2C7002152C65
:060274004E60030080F063
:02027A00D2A10F
:10027C00752C00752D05E52D152DAE2C7002152C49
:06028C004E60030080F04B
:0502920030A01BD2A109
:10029700752C00752D01E52D152DAE2C7002152C32
:0602A7004E60030080F030
:0502AD007F0122C2A147
:1002B200752C00752D01E52D152DAE2C7002152C17
:0602C2004E60030080F015
:0302C8007F002292
:0403D600EF1392A0EF
:1003DA00752E00752F01E52F152FAE2E7002152EE2
:0603EA004E60030080F0EC
:0203F000D2A198
:1003F200752E00752F05E52F152FAE2E7002152EC6
:060402004E60030080F0D3
:02040800C2A18F
:10040A00752E00752F01E52F152FAE2E7002152EB1
:06041A004E60030080F0BB
:0104200022B9
:02054E008F30EC
:10055000E4F5311200037F901200B2AF301200B206
:100560001200037F911200B212046A8F317F0112D0
:0705700003D6120421AF3194
:010577002261
:10066400EF700EE5A0B4C0097D63E4FF120383803C
:02067400F22270
:10032E0030A20C30A3097D63E4FF120383803F30BB
:10033E00A22130A31E20A00920A10620A40330A5CF
:10034E00067E007F0180047E007F00EFF4FFEEF456
:10035E004F701B20A00330A1067D637F03800A200F
:10036E00A40330A5CA7D637F0212038380C17D631F
:05037E00E4FF0203830F
:0204E7008F3252
:1004E900E4F533E5326533602A30A22230A31F20B8
:1004F900A00920A10620A40330A51320A00920A14A
:100509000620A40330A50512032E80EF053312033C
:030519002E80D061
:01051C0022BC
:1004A900EF14601724FE60222403702B7D637F0301
:1004B90012038330A2FD20A31E80F87D637F021200
:1004C900038330A2FD20A30F80F87D637F0212030E
:0E04D9008330A2FD30A3FA7D637F040203830B
:10065100759850758920758DFD758BFDD28ED2AC44
:03066100D2AF22F3
:100578008B218A228923AF051DEF601AAB21052341
:10058800E523AA227002052214F9120122F59930F6
:0705980099FDC29980E022E9
:1005C40012065112061F120687E4FF12066420A0C9
:1005D4000F20A10C20A40920A50630A2F130A3EE1F
:0105E40022F4
:100676001205C47F011204E77D637F0412038380A1
:01068600FE75
:03000000020026D5
:0C002600787FE4F6D8FD75813302006D90
:10012200BB010689828A83E0225002E722BBFE02DB
:09013200E32289828A83E493220E
:10013B00BC000BBE0029EF8DF084FFADF022E4CCA8
:10014B00F875F008EF2FFFEE33FEEC33FCEE9DEC71
:10015B00984005FCEE9DFE0FD5F0E9E4CEFD22EDB7
:10016B00F8F5F0EE8420D21CFEADF075F008EF2F01
:10017B00FFED33FD4007985006D5F0F222C398FDF2
:05018B000FD5F0EA228F
:10003200020676E493A3F8E493A34003F68001F268
:1000420008DFF48029E493A3F85407240CC8C333CF
:10005200C4540F4420C8834004F456800146F6DF9E
:10006200E4800B0102040810204080900638E47EF0
:10007200019360BCA3FF543F30E509541FFEE49393
:10008200A360010ECF54C025E060A840B8E493A35A
:10009200FAE493A3F8E493A3C8C582C8CAC583CA85
:1000A200F0A3C8C582C8CAC583CADFE9DEE780BE3D
:0106500000A9
:00000001FF
