:08037A0002080000020A000065
:0C036E00E4F5D8F5F9F5E9F5D9D2DE2266
:1002F500EFFDC374649DFDE49400FCED6509700396
:10030500EC6508601E8C088D09AE08AF097C007D80
:100315001912013C7D0A12014E8FEA8FFA75DA42F5
:03032500E4F5F20A
:0103280022B2
:10032900EFFDC374649DFDE49400FCED650B70035F
:10033900EC650A601E8C0A8D0BAE0AAF0B7C007D42
:100349001912013C7D0A12014E8FEB8FFB75DB42BE
:03035900E4F5F3D5
:01035C00227E
:10026500AB05EF146017146020146029146037245F
:10027500047045D290C291D292C2958008C290D2A4
:1002850091C292D295AF038016D290C291D292D2EA
:1002950095AF03801BD290D291D292C295E4FF1202
:1002A50002F5AF03800FD290D291D292D295E4FF9E
:0902B5001202F5E4FF12032922F4
:0303820001100067
:1000030020A00330A1197D507F0212026530A003A6
:1000130020A10630A4EA30A5E730A2E430A3E12012
:10002300A40330A5197D507F0312026530A003207D
:10003300A10630A4EA30A5E730A2E430A3E120A072
:100043002220A11F20A41C20A5197D50E4FF120229
:100053006530A00320A10630A4E430A5E130A2DE80
:1000630030A3DB30A00320A10630A49430A5913047
:10007300A28E30A38B7D507F0412026520A0242022
:10008300A12120A21E20A31B20A41820A5157D506A
:100093007F0312026520A20302012520A3030201AC
:1000A3002580F230A03430A13120A40330A50F7D88
:1000B300507F0312026520A4FD30A50F80F820A312
:1000C3000A7D507F0212026530A3FD7D50E4FF12CA
:1000D300026520A0D420A1D1803530A43230A52FD1
:1000E30020A00330A10F7D507F0212026520A0FDE6
:1000F30030A10F80F820A20A7D507F0312026530E1
:10010300A2FD7D50E4FF12026520A4D420A5D120D6
:10011300A09120A18E20A48B20A5887D507F04125E
:02012300026573
:10012500750E00750F64E50F150FAE0E7002150EF6
:060135004E60030080F0A3
:01013B0022A1
:0202BE008F0CA3
:1002C000E50C6017E4F50DE50DC3950C5026120002
:1002D00003050D850D10850D8080EC7D50E4FF1227
:1002E000026520A0FD20A1FA20A2F720A3F420A4FB
:0402F000F120A5EE66
:0102F40022E7
:030386000202BEB2
:0303890002036EFE
:10035D001203897F071203867D507F041202658088
:01036D00FE91
:030000000201D921
:0C01D900787FE4F6D8FD7581100202204A
:10013C00EF8DF0A4A8F0CF8CF0A428CE8DF0A42ED7
:02014C00FE2291
:10014E00C2D5EC30E709B2D5E4C39DFDE49CFCEECC
:10015E0030E715B2D5E4C39FFFE49EFE120184C3BF
:10016E00E49DFDE49CFC800312018430D507C3E4BA
:06017E009FFFE49EFE223B
:1001E50002035DE493A3F8E493A34003F68001F2D0
:1001F50008DFF48029E493A3F85407240CC8C3331B
:10020500C4540F4420C8834004F456800146F6DFE9
:10021500E4800B010204081020408090037AE47EFC
:10022500019360BCA3FF543F30E509541FFEE493DE
:10023500A360010ECF54C025E060A840B8E493A3A5
:10024500FAE493A3F8E493A3C8C582C8CAC583CAD0
:10025500F0A3C8C582C8CAC583CADFE9DEE780BE88
:010385000077
:10018400BC000BBE0029EF8DF084FFADF022E4CC5F
:10019400F875F008EF2FFFEE33FEEC33FCEE9DEC28
:1001A400984005FCEE9DFE0FD5F0E9E4CEFD22ED6E
:1001B400F8F5F0EE8420D21CFEADF075F008EF2FB8
:1001C400FFED33FD4007985006D5F0F222C398FDA9
:0501D4000FD5F0EA2246
:00000001FF
