:0803B700020E0000021000001C
:0C03AB00E4F5D8F5F9F5E9F5D9D2DE2229
:10033200EFFDC374649DFDE49400FCED650F700352
:10034200EC650E601E8C0E8D0FAE0EAF0F7C007D25
:10035200191201797D0A12018B8FEA8FFA75DA423E
:03036200E4F5F2CD
:010365002275
:10036600EFFDC374649DFDE49400FCED651170031C
:10037600EC6510601E8C108D11AE10AF117C007DE7
:10038600191201797D0A12018B8FEB8FFB75DB4207
:03039600E4F5F398
:010399002241
:1002A200AB05EF1460171460201460291460372422
:1002B200047045D290C291D292C2958008C290D267
:1002C20091C292D295AF038016D290C291D292D2AD
:1002D20095AF03801BD290D291D292C295E4FF12C5
:1002E2000332AF03800FD290D291D292D295E4FF23
:0902F200120332E4FF120366223C
:0303BF0001120028
:1000030020A00330A1197D507F021202A230A00369
:1000130020A10630A4EA30A5E730A2E430A3E12012
:10002300A40330A5197D507F031202A230A0032040
:10003300A10630A4EA30A5E730A2E430A3E120A072
:100043002220A11F20A41C20A5197D50E4FF120229
:10005300A230A00320A10630A4E430A5E130A2DE43
:1000630030A3DB30A00320A10630A49430A5913047
:05007300A28E30A38BFA
:10007800750A03750BE8E50B150BAE0A7002150A35
:030088004E6016B1
:10008B00750C00750D02E50D150DAE0C7002150CFF
:06009B004E60E00080F061
:1000A10030A00320A10C20A40302000320A5030219
:1000B100000320A20302000320A30302000320A0E7
:1000C1002120A11E20A21B20A31820A41520A512C7
:1000D1007D507F031202A220A20302015B30A37AAA
:1000E10080F530A03430A13120A40330A50F7D501C
:1000F1007F031202A220A4FD30A50F80F820A30ADD
:100101007D507F021202A230A3FD7D50E4FF120256
:10011100A220A0D420A1D1803530A43230A52F2037
:10012100A00330A10F7D507F021202A220A0FD305A
:10013100A10F80F820A20A7D507F031202A230A2F3
:10014100FD7D50E4FF1202A220A4D420A5D120A05D
:100151009120A18E20A48B20A5887D507F041202BE
:01016100A2FB
:10016200750A00750B64E50B150BAE0A7002150AD1
:060172004E60030080F066
:010178002264
:0202FB008F086A
:1002FD00E5086017E4F509E509C3950850261200D5
:10030D0003050985091285098080EC7D50E4FF12F3
:10031D0002A220A0FD20A1FA20A2F720A3F420A480
:04032D00F120A5EE28
:0103310022A9
:0303C3000202FB38
:0303C6000203AB84
:10039A001203C67F081203C37D507F041202A28093
:0103AA00FE54
:03000000020216E3
:0C021600787FE4F6D8FD75811202025DCD
:10017900EF8DF0A4A8F0CF8CF0A428CE8DF0A42E9A
:02018900FE2254
:10018B00C2D5EC30E709B2D5E4C39DFDE49CFCEE8F
:10019B0030E715B2D5E4C39FFFE49EFE1201C1C345
:1001AB00E49DFDE49CFC80031201C130D507C3E440
:0601BB009FFFE49EFE22FE
:1002220002039AE493A3F8E493A34003F68001F255
:1002320008DFF48029E493A3F85407240CC8C333DD
:10024200C4540F4420C8834004F456800146F6DFAC
:10025200E4800B01020408102040809003B7E47E82
:10026200019360BCA3FF543F30E509541FFEE493A1
:10027200A360010ECF54C025E060A840B8E493A368
:10028200FAE493A3F8E493A3C8C582C8CAC583CA93
:10029200F0A3C8C582C8CAC583CADFE9DEE780BE4B
:0103C200003A
:1001C100BC000BBE0029EF8DF084FFADF022E4CC22
:1001D100F875F008EF2FFFEE33FEEC33FCEE9DECEB
:1001E100984005FCEE9DFE0FD5F0E9E4CEFD22ED31
:1001F100F8F5F0EE8420D21CFEADF075F008EF2F7B
:10020100FFED33FD4007985006D5F0F222C398FD6B
:050211000FD5F0EA2208
:00000001FF
