:0B09BB00303132333435363738390024
:100940007F381205C07F081205C07F011205C07FE5
:09095000061205C07F0C0205C06F
:0805C000C2A7C2A6C2968F80FB
:1005C8007526007527C8E5271527AE26700215265B
:0605D8004E60030080F0FC
:0205DE00D296B3
:1005E000752603752720E5271527AE2670021526E8
:0605F0004E60030080F0E4
:0205F600C296AB
:1005F800752600752764E5271527AE26700215268F
:060608004E60030080F0CB
:01060E0022C9
:08060F00D2A7C2A6C2968F809B
:10061700752900752AC8E52A152AAE2970021529F9
:060627004E60030080F0AC
:02062D00D29663
:10062F00752903752A20E52A152AAE297002152986
:06063F004E60030080F094
:02064500C2965B
:10064700752900752A64E52A152AAE29700215292D
:060657004E60030080F07C
:01065D00227A
:10089D008B268A278928AB26AA27A92812027660DB
:1008AD00130528E5287002052714F9120276FF12A8
:0508BD00060F80E2229D
:1008E500EF75F00A120254FE75F00AA4FDC3EF9DE0
:1008F500FDEE9009BB93FF12060FED93FF02060F65
:10073000C1020108000409010000000513FFFF01C8
:090740000000050EFF010003009A
:03002300020504CF
:10050400C0E0C0D085990D309854E508C3940350D9
:100514002EE508B40209E50DB509040508803DE59A
:1005240008B40109E50DB4FF040508802FE508703F
:1005340009E50DB4FF0405088022750800801DE557
:1005440008B40413850D0B750800850915850A1672
:10055400850B17D2028005850D0A0508C298D0D0F4
:03056400D0E032B2
:0807490002180000021A000072
:0C09AF00E4F5D8F5F9F5E9F5D9D2DE221F
:10076A00EFFDC374649DFDE49400FCED651970030C
:10077A00EC6518601E8C188D19AE18AF197C007DB7
:10078A001912028F7D0A1202A18FEA8FFA75DA42D4
:03079A00E4F5F291
:01079D002239
:10079E00EFFDC374649DFDE49400FCED651B7003D6
:1007AE00EC651A601E8C1A8D1BAE1AAF1B7C007D79
:1007BE001912028F7D0A1202A18FEB8FFB75DB429D
:0307CE00E4F5F35C
:0107D1002205
:10056700AB05EF146017146020146029146037245A
:10057700047045D290C291D292C2958008C290D29F
:1005870091C292D295AF038016D290C291D292D2E5
:1005970095AF03801BD290D291D292C295E4FF12FD
:1005A700076AAF03800FD290D291D292D295E4FF1F
:0905B70012076AE4FF12079E22FC
:1009590054696D653A20003A00666F756E64206CC3
:06096900696E65733A009F
:0D075100011C00011D00011E00C101C100BE
:10098100758901758C4CE4F58AD2AFD2A9C28C224B
:10096F00BF0102D28CEF7002C28CBF0204C201C25F
:02097F00002254
:1006F2007F011205C07F3112060F7F011205C07BF8
:10070200FF7A09795912089DAF1E1208E57BFF7A1C
:1007120009796012089DAF1D1208E57FC01205C05D
:0E0722007BFF7A09796212089DAF0C0208E590
:03000B00020437B5
:10043700C0E0C0F0C083C082C0D075D000C000C08B
:1004470001C002C003C004C005C006C007051C7573
:100457008C4C758A00E51CC394144020751C00055C
:100467001D1206F2E51DB41E07200004D200D201BA
:10047700E51DC3943C4005751D00051ED007D00639
:10048700D005D004D003D002D001D000D0D0D08284
:07049700D083D0F0D0E03269
:100026008F26E526600302013820A00330A1197D42
:10003600507F0212056730A00320A10630A4EA30E3
:10004600A5E730A2E430A3E120A40330A5197D5032
:100056007F0312056730A00320A10630A4EA30A56D
:10006600E730A2E430A3E120A02820A12520A42285
:1000760020A51F30A21C30A3197D50E4FF1205678E
:1000860030A00320A10630A4DE30A5DB30A2D83094
:10009600A3D520A02820A12520A32220A41F20A587
:1000A6001C30A2197D507F0212056730A00320A1E3
:1000B6000630A4DE30A5DB30A2D830A3D520A02898
:1000C60020A12520A22220A41F20A51C30A3197D33
:1000D600507F0312056730A00320A10630A4DE304E
:0800E600A5DB30A2D830A3D540
:1000EE007527037528E8E5281528AE277002152711
:0300FE004E60163B
:10010100752900752A14E52A152AAE2970021529C8
:060111004E60E00080F0EA
:1001170030A00320A10C20A40302002F20A5030276
:10012700002F20A20302002F20A30302002F0202A8
:100137004DE5266401600302024D20A00330A1199A
:100147007D507F0212056720A0F020A1ED20A2EAD2
:1001570020A3E720A4E420A5E120A40330A5197D6E
:10016700507F0312056720A0F020A1ED20A2EA200E
:10017700A3E720A4E420A5E120A02820A12520A40E
:100187002220A51F30A21C30A3197D50E4FF1205C1
:100197006720A0E420A1E120A2DE20A3DB20A4D8D1
:1001A70020A5D520A02820A12520A32220A41F20F8
:1001B700A51C30A2197D507F0212056730A00320CD
:1001C700A10630A4DE30A5DB30A2D830A3D520A00D
:1001D7002820A12520A22220A41F20A51C30A31976
:1001E7007D507F0312056730A00320A10630A4DEEF
:0901F70030A5DB30A2D830A3D5FD
:100200007527037528E8E5281528AE2770021527FD
:030210004E601627
:10021300752900752A14E52A152AAE2970021529B5
:060223004E60E00080F0D7
:1002290030A00302014130A10302014130A20302BF
:10023900014130A30302014130A40302014130A569
:0B024900030201417D507F04020567A5
:08000300E4FF1200260203B81D
:1003B80030A03430A13120A40330A50F7D507F0335
:1003C80012056720A4FD30A50F80F820A30A7D50F0
:1003D8007F0212056730A3FD7D50E4FF12056720F8
:1003E800A0D420A1D1803530A43230A52F20A0037D
:1003F80030A10F7D507F0212056720A0FD30A10FAC
:1004080080F820A20A7D507F0312056730A2FD7D87
:1004180050E4FF12056720A4D420A5D120A0912084
:0F042800A18E20A48B20A5887D507F040205673C
:10049E00EF1460481460241470557D507F031205CC
:1004AE006720A50330A0FA20A0FD20A1FA20A4F712
:1004BE0020A5F430A2F120A33680EC7D507F0212ED
:1004CE00056720A50330A0FA20A0FD20A1FA20A4E4
:1004DE00F720A5F430A2F120A31580EC7D507F010A
:1004EE0012056730A00320A10630A4F730A5F47DD5
:0604FE00507F04020567B7
:10092500E4FF1200267F0212049E1200037F0212CA
:0B093500049E7F01120026750C0322B7
:10090500E4FF1200267F0212049E120003E4FF1288
:1009150000267F0312049E7F01120026750C042217
:1008C200E4FF1200267F0212049E120003120003AC
:1008D200E4FF1200267F0212049E7F011200267599
:0308E2000C0522E0
:10085100E4FF1200267F0212049E1200031200031D
:10086100120003E4FF1200267F0312049E7F01128F
:060871000026750C0622B2
:10082800E4FF1200267F0212049E12000312000346
:10083800120003120003E4FF1200267F0212049E36
:090848007F01120026750C072245
:1007D200E4FF1200267F0212049E1200031200039D
:1007E200120003120003120003E4FF1200267F032B
:0C07F20012049E7F01120026750C0822E4
:10065E00E50C24FC6028146023146022146021141D
:10066E00601C240570377F0112049E7F0312049EC6
:10067E007F0312049E7D507F040205678002800E68
:10068E007F0112049E7F0312049E7F03800C7F0164
:0E069E0012049E7F0212049E7F0212049E220E
:0100210022BC
:1006AC00EF14B40800503E9006C175F003A4C58346
:1006BC0025F0C583730206EB0206EE0206D902068C
:1006CC00DC0206DF0206E20206E50206E802092564
:1006DC000209050208C20208510208280207D202C8
:0606EC00065E120021224F
:0309CE000206AC72
:10000E00759850758920758DFD758BFDD28ED2AC8D
:03001E00D2AF223C
:0809C6008F993099FDC29922BE
:060877008B348A3589363E
:10087D00E4FEEEC39D5018AB340536E536AA35704F
:0F088D0002053514F9120276FF1209C60E80E338
:01089C002239
:0B075E00092B00010203040506070838
:0207FE008F3733
:10080000E4F538742B2538F8E6B50C048538112248
:100810008537127B007A00790E7D0512087705383E
:07082000E538C3940940DC38
:0108270022AE
:0F0991001209AF12094012098112000E0206F27C
:0F09A0001209917F031209CE7F011209CE80FE4A
:0300000002032CCC
:0C032C00787FE4F6D8FD75813802037379
:10025400C2D530F707B2D563F0FF05F030E70CB232
:10026400D5F4048463F0FF05F080018430D502F4F2
:02027400042262
:10027600BB010689828A83E0225002E722BBFE0286
:09028600E32289828A83E49322B9
:10028F00EF8DF0A4A8F0CF8CF0A428CE8DF0A42E83
:02029F00FE223D
:1002A100C2D5EC30E709B2D5E4C39DFDE49CFCEE78
:1002B10030E715B2D5E4C39FFFE49EFE1202D7C317
:1002C100E49DFDE49CFC80031202D730D507C3E412
:0602D1009FFFE49EFE22E7
:100338000209A0E493A3F8E493A34003F68001F232
:1003480008DFF48029E493A3F85407240CC8C333C6
:10035800C4540F4420C8834004F456800146F6DF95
:10036800E4800B0102040810204080900730E47EEE
:10037800019360BCA3FF543F30E509541FFEE4938A
:10038800A360010ECF54C025E060A840B8E493A351
:10039800FAE493A3F8E493A3C8C582C8CAC583CA7C
:1003A800F0A3C8C582C8CAC583CADFE9DEE780BE34
:01076900008F
:1002D700BC000BBE0029EF8DF084FFADF022E4CC0B
:1002E700F875F008EF2FFFEE33FEEC33FCEE9DECD4
:1002F700984005FCEE9DFE0FD5F0E9E4CEFD22ED1A
:10030700F8F5F0EE8420D21CFEADF075F008EF2F63
:10031700FFED33FD4007985006D5F0F222C398FD54
:050327000FD5F0EA22F1
:00000001FF
