:0803770002080000020A000068
:0C036B00E4F5D8F5F9F5E9F5D9D2DE2269
:1002F200EFFDC374649DFDE49400FCED6509700399
:10030200EC6508601E8C088D09AE08AF097C007D83
:10031200191201397D0A12014B8FEA8FFA75DA42FE
:03032200E4F5F20D
:0103250022B5
:10032600EFFDC374649DFDE49400FCED650B700362
:10033600EC650A601E8C0A8D0BAE0AAF0B7C007D45
:10034600191201397D0A12014B8FEB8FFB75DB42C7
:03035600E4F5F3D8
:010359002281
:10026200AB05EF1460171460201460291460372462
:10027200047045D290C291D292C2958008C290D2A7
:1002820091C292D295AF038016D290C291D292D2ED
:1002920095AF03801BD290D291D292C295E4FF1205
:1002A20002F2AF03800FD290D291D292D295E4FFA4
:0902B2001202F2E4FF12032622FD
:03037F000110006A
:1000030020A00330A1197D507F0212026230A003A9
:1000130020A10630A4EA30A5E730A2E430A3E12012
:10002300A40330A5197D507F0312026230A0032080
:10003300A10630A4EA30A5E730A2E430A3E120A072
:100043002220A11F20A41C20A5197D50E4FF120229
:100053006230A00320A10630A4E430A5E130A2DE83
:1000630030A3DB30A00320A10630A49430A5913047
:10007300A28E30A38B7D507F0412026220A0212028
:10008300A11E20A21B20A31820A41520A5127D5079
:100093007F0312026220A20302011B30A37A80F5C0
:1000A30030A03430A13120A40330A50F7D507F034D
:1000B30012026220A4FD30A50F80F820A30A7D5010
:1000C3007F0212026230A3FD7D50E4FF1202622020
:1000D300A0D420A1D1803530A43230A52F20A00395
:1000E30030A10F7D507F0212026220A0FD30A10FCC
:1000F30080F820A20A7D507F0312026230A2FD7DA8
:1001030050E4FF12026220A4D420A5D120A09120A4
:0F011300A18E20A48B20A5887D507F041202624C
:10012200750E00750F64E50F150FAE0E7002150EF9
:060132004E60030080F0A6
:0101380022A4
:0202BB008F0CA6
:1002BD00E50C6017E4F50DE50DC3950C5026120005
:1002CD0003050D850D10850D8080EC7D50E4FF122A
:1002DD00026220A0FD20A1FA20A2F720A3F420A401
:0402ED00F120A5EE69
:0102F10022EA
:030383000202BBB8
:0303860002036B04
:10035A001203867F071203837D507F041202628094
:01036A00FE94
:030000000201D624
:0C01D600787FE4F6D8FD75811002021D50
:10013900EF8DF0A4A8F0CF8CF0A428CE8DF0A42EDA
:02014900FE2294
:10014B00C2D5EC30E709B2D5E4C39DFDE49CFCEECF
:10015B0030E715B2D5E4C39FFFE49EFE120181C3C5
:10016B00E49DFDE49CFC800312018130D507C3E4C0
:06017B009FFFE49EFE223E
:1001E20002035AE493A3F8E493A34003F68001F2D6
:1001F20008DFF48029E493A3F85407240CC8C3331E
:10020200C4540F4420C8834004F456800146F6DFEC
:10021200E4800B0102040810204080900377E47E02
:10022200019360BCA3FF543F30E509541FFEE493E1
:10023200A360010ECF54C025E060A840B8E493A3A8
:10024200FAE493A3F8E493A3C8C582C8CAC583CAD3
:10025200F0A3C8C582C8CAC583CADFE9DEE780BE8B
:01038200007A
:10018100BC000BBE0029EF8DF084FFADF022E4CC62
:10019100F875F008EF2FFFEE33FEEC33FCEE9DEC2B
:1001A100984005FCEE9DFE0FD5F0E9E4CEFD22ED71
:1001B100F8F5F0EE8420D21CFEADF075F008EF2FBB
:1001C100FFED33FD4007985006D5F0F222C398FDAC
:0501D1000FD5F0EA2249
:00000001FF
