:0803700002080000020A00006F
:0C036400E4F5D8F5F9F5E9F5D9D2DE2270
:1002EB00EFFDC374649DFDE49400FCED65097003A0
:1002FB00EC6508601E8C088D09AE08AF097C007D8B
:10030B00191201327D0A1201448FEA8FFA75DA4213
:03031B00E4F5F214
:01031E0022BC
:10031F00EFFDC374649DFDE49400FCED650B700369
:10032F00EC650A601E8C0A8D0BAE0AAF0B7C007D4C
:10033F00191201327D0A1201448FEB8FFB75DB42DC
:03034F00E4F5F3DF
:010352002288
:10025B00AB05EF1460171460201460291460372469
:10026B00047045D290C291D292C2958008C290D2AE
:10027B0091C292D295AF038016D290C291D292D2F4
:10028B0095AF03801BD290D291D292C295E4FF120C
:10029B0002EBAF03800FD290D291D292D295E4FFB2
:0902AB001202EBE4FF12031F2212
:0303780001100071
:1000030020A00330A1197D507F0212025B30A003B0
:1000130020A10630A4EA30A5E730A2E430A3E12012
:10002300A40330A5197D507F0312025B30A0032087
:10003300A10630A4EA30A5E730A2E430A3E120A072
:100043002220A11F20A41C20A5197D50E4FF120229
:100053005B30A00320A10630A4E430A5E130A2DE8A
:1000630030A3DB30A00320A10630A49430A5913047
:10007300A28E30A38B7D507F0412025B20A021202F
:10008300A11E20A21B20A31820A41520A5127D5079
:100093007F0312025B20A20302011B30A37A80F5C7
:1000A30030A03430A13120A40330A50F7D507F034D
:1000B30012025B20A4FD30A50F80F820A30A7D5017
:1000C3007F0212025B30A3FD7D50E4FF12025B202E
:1000D300A0D420A1D1803530A43230A52F20A00395
:1000E30030A10F7D507F0212025B20A0FD30A10FD3
:1000F30080F820A20A7D507F0312025B30A2FD7DAF
:1001030050E4FF12025B20A4D420A5D120A09120AB
:08011300A18E20A48B20A58819
:10011B00750E00750F64E50F150FAE0E7002150E00
:06012B004E60030080F0AD
:0101310022AB
:0202B4008F0CAD
:1002B600E50C6017E4F50DE50DC3950C502612000C
:1002C60003050D850D10850D8080EC7D50E4FF1231
:1002D600025B20A0FD20A1FA20A2F720A3F420A40F
:0402E600F120A5EE70
:0102EA0022F1
:03037C000202B4C6
:03037F0002036412
:1003530012037F7F0712037C7D507F0412025B80B0
:01036300FE9B
:030000000201CF2B
:0C01CF00787FE4F6D8FD7581100202165E
:10013200EF8DF0A4A8F0CF8CF0A428CE8DF0A42EE1
:02014200FE229B
:10014400C2D5EC30E709B2D5E4C39DFDE49CFCEED6
:1001540030E715B2D5E4C39FFFE49EFE12017AC3D3
:10016400E49DFDE49CFC800312017A30D507C3E4CE
:060174009FFFE49EFE2245
:1001DB00020353E493A3F8E493A34003F68001F2E4
:1001EB0008DFF48029E493A3F85407240CC8C33325
:1001FB00C4540F4420C8834004F456800146F6DFF4
:10020B00E4800B0102040810204080900370E47E10
:10021B00019360BCA3FF543F30E509541FFEE493E8
:10022B00A360010ECF54C025E060A840B8E493A3AF
:10023B00FAE493A3F8E493A3C8C582C8CAC583CADA
:10024B00F0A3C8C582C8CAC583CADFE9DEE780BE92
:01037B000081
:10017A00BC000BBE0029EF8DF084FFADF022E4CC69
:10018A00F875F008EF2FFFEE33FEEC33FCEE9DEC32
:10019A00984005FCEE9DFE0FD5F0E9E4CEFD22ED78
:1001AA00F8F5F0EE8420D21CFEADF075F008EF2FC2
:1001BA00FFED33FD4007985006D5F0F222C398FDB3
:0501CA000FD5F0EA2250
:00000001FF
