:10019300759850758920758DFD758BFDD28ED2AC07
:0301A300D2AF22B6
:0801A6008F993099FDC29922E6
:060154008B1B8A1C891DB3
:10015A00E4FEEEC39D5018AB1B051DE51DAA1C70DD
:0F016A0002051C14F912017AFF1201A60E80E3A0
:010179002263
:10000300C10001080003090100000512FFFF000001
:0800130000050DFF01000000D3
:030023000200B226
:1000B200C0E0C0D085990C309854E508C394035031
:1000C2002EE508B40209E50CB509040508803DE5F2
:1000D20008B40109E50CB4FF040508802FE5087097
:1000E20009E50CB4FF0405088022750800801DE5AF
:1000F20008B40413850C0B750800850914850A15CC
:10010200850B16D2008005850C0A0508C298D0D04E
:03011200D0E03208
:05001B000321AA02AA66
:10011500120193750AAA7B007A0079217D031201E9
:0601250054AF0A1201A60E
:10012B007517037518E8E5181518AE177002151733
:03013B004E60E82B
:10013E00751900751A64E51A151AAE19700215199B
:06014E004E60E00080F0AD
:03000000020026D5
:0C002600787FE4F6D8FD75812302006DA0
:10017A00BB010689828A83E0225002E722BBFE0283
:09018A00E32289828A83E49322B6
:10003200020115E493A3F8E493A34003F68001F2CE
:1000420008DFF48029E493A3F85407240CC8C333CF
:10005200C4540F4420C8834004F456800146F6DF9E
:10006200E4800B0102040810204080900003E47E2B
:10007200019360BCA3FF543F30E509541FFEE49393
:10008200A360010ECF54C025E060A840B8E493A35A
:10009200FAE493A3F8E493A3C8C582C8CAC583CA85
:1000A200F0A3C8C582C8CAC583CADFE9DEE780BE3D
:0100200000DF
:00000001FF
